:04000000FEEF7FF0A0
:101000000092367A327E35C825A02AE82CFE298443
:1010100036563752373434FE3606377636F636666D
:10102000364E2EDE2D56362D2D2D2D2D2D2D2D2DE2
:101030002D2D2D2D2D2D2D2D2D2D2D2D2D2D2D2DE0
:101040002D2D2D2D2D2D2D2D2D2D2D2D2D2D2D2DD0
:101050002D2D2D2D2D2D0A0D000A44617461207453
:101060006F206265207772697474656E20746F20DA
:10107000454550524F4D3A0A0A0D00454550524FD2
:101080004D204869676820416464726573733A3023
:10109000782025780A0D00454550524F4D204C6F61
:1010A0007720416464726573733A30782025780A3A
:1010B0000D000A0D454550524F4D20526561642088
:1010C000446174613A0A0A0D0030782578202000C6
:0110D000001F
:1010D200116E20EF11F0520E1118D8A473EF08F020
:1010E20075EF08F081EF08F060002BF0D9FF600087
:1010F2002FF0DAFF020EDE6E000EDD6E56EF11F0FB
:10110200570E1118D8A488EF08F08AEF08F096EF6E
:1011120008F060002BF0D9FF60002FF0DAFF030E19
:10112200DE6E000EDD6E56EF11F060002BF0D9FF7F
:1011320060002FF0DAFF010EDE6E000EDD6E56EF5C
:1011420011F056EF11F0420E1118D8A4ABEF08F0CF
:10115200ADEF08F0C3EF08F020EE18F00A50D926E0
:101162000B50DA22000EDE6E000EDD6E60002BF0F8
:10117200D9FF60002FF0DAFF040EDE6E000EDD6E86
:1011820056EF11F0530E1118D8A4CAEF08F0CCEFA5
:1011920008F0EAEF08F020EE1CF00A50D9260B50B6
:1011A200DA22000EDF6E20EE18F00A50D9260B501C
:1011B200DA22000EDE6E000EDD6E60002BF0D9FF2B
:1011C20060002FF0DAFF050EDE6E000EDD6E56EFC8
:1011D20011F060002BF0D9FF60002FF0DAFF010E52
:1011E200DE6E000EDD6E56EF11F0420E1118D8A41D
:1011F200FDEF08F0FFEF08F027EF09F020EE1CF0FA
:101202000A50D9260B50DA22000EDF6E20EE18F0BB
:101212000A50D9260B50DA22000EDE6E000EDD6E69
:1012220020EE1AF00A50D9260B50DA22000EDE6E9A
:10123200000EDD6E60002BF0D9FF60002FF0DAFFA8
:10124200060EDE6E000EDD6E56EF11F0530E111813
:10125200D8A42EEF09F030EF09F060EF09F020EE8C
:101262001EF00A50D9260B50DA22000EDF6E20EE55
:101272001CF00A50D9260B50DA22000EDF6E20EE47
:1012820018F00A50D9260B50DA22000EDE6E000E3C
:10129200DD6E20EE1AF00A50D9260B50DA22000E2B
:1012A200DE6E000EDD6E60002BF0D9FF60002FF0C5
:1012B200DAFF070EDE6E000EDD6E56EF11F06000F3
:1012C2002BF0D9FF60002FF0DAFF010EDE6E000E68
:1012D200DD6E56EF11F020EE18F00A50D9260B50B1
:1012E200DA22010EDBBE82EF09F0010EDB5007E1CC
:1012F200030EDE5CD8B080EF09F082EF09F0BBEF9D
:1013020009F020EE18F00A50D9260B50DA226F00AD
:1013120078FF0CF06F0074FF0DF00C500A240E6E73
:101322000D500B200F6E020E0E24D96E000E0F20F0
:10133200DA6E600047F0DFFF20EE18F00A50D9267F
:101342000B50DA226F0078FF0CF06F0074FF0DF083
:10135200010E0C26000E0D2220EE18F00A50D9269E
:101362000B50DA22600033F0DEFF600037F0DDFF61
:1013720056EF11F020EE18F00A50D9260B50DA225F
:10138200030EDE18DE10D8A4C9EF09F0CBEF09F086
:1013920016EF0AF020EE18F00A50D9260B50DA2286
:1013A2006F0078FF0CF06F0074FF0DF00C500A24F0
:1013B2000E6E0D500B200F6E020E0E24D96E000E13
:1013C2000F20DA6E600047F0DFFF20EE18F00A50BF
:1013D200D9260B50DA226F0078FF0CF06F0074FFF1
:1013E2000DF0010E0C26000E0D2220EE18F00A5010
:1013F200D9260B50DA22600033F0DEFF600037F0AE
:10140200DDFF20EE1FF00A50D9260B50DA22010E22
:10141200DF6E60002BF0D9FF60002FF0DAFF080EBC
:10142200DE6E000EDD6E56EF11F020EE18F00A505F
:10143200D9260B50DA22000EDE6E000EDD6E600041
:101442002BF0D9FF60002FF0DAFF010EDE6E000EE6
:10145200DD6E56EF11F020EE1CF00A50D9260B502B
:10146200DA22DF50D8A438EF0AF03AEF0AF0EDEFB3
:101472000AF020EE18F00A50D9260B50DA22010E9B
:10148200DBBE50EF0AF0010EDB5007E1030EDE5C1B
:10149200D8B04EEF0AF050EF0AF089EF0AF020EED2
:1014A20018F00A50D9260B50DA226F0078FF0CF0A0
:1014B2006F0074FF0DF00C500A240E6E0D500B20BD
:1014C2000F6E020E0E24D96E000E0F20DA6E60002F
:1014D20047F0DFFF20EE18F00A50D9260B50DA222F
:1014E2006F0078FF0CF06F0074FF0DF0010E0C26F8
:1014F200000E0D2220EE18F00A50D9260B50DA22E7
:10150200600033F0DEFF600037F0DDFF56EF11F0D0
:1015120020EE18F00A50D9260B50DA22030EDE18FC
:10152200DE10D8A497EF0AF099EF0AF0DAEF0AF08A
:1015320020EE18F00A50D9260B50DA226F0078FFFD
:101542000CF06F0074FF0DF00C500A240E6E0D505B
:101552000B200F6E020E0E24D96E000E0F20DA6ED3
:10156200600047F0DFFF20EE18F00A50D9260B503A
:10157200DA226F0078FF0CF06F0074FF0DF0010E9D
:101582000C26000E0D2220EE18F00A50D9260B5020
:10159200DA22600033F0DEFF600037F0DDFF20EE7C
:1015A2001FF00A50D9260B50DA22010EDF6E56EFD9
:1015B20011F02C0E1118D8A4E1EF0AF0E3EF0AF0B3
:1015C200A2EF08F020EE1CF00A50D9260B50DA22C6
:1015D200010EDF6E56EF11F020EE1CF00A50D926F4
:1015E2000B50DA22DE04D8A4F9EF0AF0FBEF0AF07E
:1015F200A3EF0BF020EE1AF00A50D9260B50DA2294
:10160200DE50DE10D8A408EF0BF00AEF0BF04EEF1D
:101612000BF03A0E116010EF0BF012EF0BF01DEF12
:101622000BF020EE07F00A50D9260B50DA221138BF
:10163200F00BDF6E30EF0BF0390E116423EF0BF07D
:1016420025EF0BF030EF0BF020EE07F00A50D92611
:101652000B50DA221150100DF350900FDF6E20EE76
:101662001AF00A50D9260B50DA226F0078FF0CF0DC
:101672006F0074FF0DF0010E0C26000E0D2220EEFD
:101682001AF00A50D9260B50DA22600033F0DEFF3E
:10169200600037F0DDFF56EF11F020EE1AF00A502D
:1016A200D9260B50DA22DE04DE10D8A45BEF0BF051
:1016B2005DEF0BF056EF11F03A0E116063EF0BF095
:1016C20065EF0BF073EF0BF011C00CF0D00E0C268F
:1016D20020EE07F00A50D9260B50DA220C50DF26F2
:1016E20087EF0BF0390E116479EF0BF07BEF0BF003
:1016F20087EF0BF011C00CF0C90E0C2620EE07F09C
:101702000A50D9260B50DA220C50DF2620EE1CF0AC
:101712000A50D9260B50DA22000EDF6E20EE20F09E
:101722000A50D9260B50DA22010EDF6E60002BF030
:10173200D9FF60002FF0DAFF080EDE6E000EDD6EBC
:1017420056EF11F060002BF0D9FF60002FF0DAFFA6
:10175200010EDE6E000EDD6E20EE1AF00A50D92662
:101762000B50DA22000EDE6E000EDD6E20EE1EF051
:101772000A50D9260B50DA22000EDF6E20EE1CF042
:101782000A50D9260B50DA22000EDF6E56EF11F006
:1017920020EE1CF00A50D9260B50DA22DF50D8A4D2
:1017A200D5EF0BF0D7EF0BF08AEF0CF020EE18F02C
:1017B2000A50D9260B50DA22010EDBBEEDEF0BF0F8
:1017C200010EDB5007E1030EDE5CD8B0EBEF0BF04D
:1017D200EDEF0BF026EF0CF020EE18F00A50D926B0
:1017E2000B50DA226F0078FF0CF06F0074FF0DF0DF
:1017F2000C500A240E6E0D500B200F6E020E0E249A
:10180200D96E000E0F20DA6E600047F0DFFF20EE87
:1018120018F00A50D9260B50DA226F0078FF0CF02C
:101822006F0074FF0DF0010E0C26000E0D2220EE4B
:1018320018F00A50D9260B50DA22600033F0DEFF8E
:10184200600037F0DDFF56EF11F020EE18F00A507D
:10185200D9260B50DA22030EDE18DE10D8A434EF9C
:101862000CF036EF0CF077EF0CF020EE18F00A5087
:10187200D9260B50DA226F0078FF0CF06F0074FF4C
:101882000DF00C500A240E6E0D500B200F6E020E3E
:101892000E24D96E000E0F20DA6E600047F0DFFFD3
:1018A20020EE18F00A50D9260B50DA226F0078FF8A
:1018B2000CF06F0074FF0DF0010E0C26000E0D22CD
:1018C20020EE18F00A50D9260B50DA22600033F0CD
:1018D200DEFF600037F0DDFF20EE1FF00A50D92650
:1018E2000B50DA22010EDF6E56EF11F02C0E11189A
:1018F200D8A47EEF0CF080EF0CF0A2EF08F020EEFF
:101902001CF00A50D9260B50DA22010EDF6E56EF78
:1019120011F020EE1CF00A50D9260B50DA22DE0418
:10192200D8A496EF0CF098EF0CF04AEF0DF020EEF1
:101932001AF00A50D9260B50DA22DE50DE10D8A453
:10194200A5EF0CF0A7EF0CF0EBEF0CF03A0E1160E4
:10195200ADEF0CF0AFEF0CF0BAEF0CF020EE06F0AA
:101962000A50D9260B50DA221138F00BDF6ECDEF78
:101972000CF0390E1164C0EF0CF0C2EF0CF0CDEF99
:101982000CF020EE06F00A50D9260B50DA22115044
:10199200100DF350900FDF6E20EE1AF00A50D92688
:1019A2000B50DA226F0078FF0CF06F0074FF0DF01D
:1019B200010E0C26000E0D2220EE1AF00A50D92636
:1019C2000B50DA22600033F0DEFF600037F0DDFFFB
:1019D20056EF11F020EE1AF00A50D9260B50DA22F7
:1019E200DE04DE10D8A4F8EF0CF0FAEF0CF056EF9C
:1019F20011F03A0E116000EF0DF002EF0DF010EF52
:101A02000DF011C00CF0D00E0C2620EE06F00A509C
:101A1200D9260B50DA220C50DF2624EF0DF0390EB6
:101A2200116416EF0DF018EF0DF024EF0DF011C058
:101A32000CF0C90E0C2620EE06F00A50D9260B50E7
:101A4200DA220C50DF2620EE1CF00A50D9260B5069
:101A5200DA22000EDF6E20EE1AF00A50D9260B5061
:101A6200DA22000EDE6E000EDD6E20EE21F00A504C
:101A7200D9260B50DA22010EDF6E60002BF0D9FF5F
:101A820060002FF0DAFF080EDE6E000EDD6E56EFFC
:101A920011F060002BF0D9FF60002FF0DAFF010E89
:101AA200DE6E000EDD6E20EE1AF00A50D9260B50C3
:101AB200DA22000EDE6E000EDD6E20EE1EF00A50FF
:101AC200D9260B50DA22000EDF6E20EE1CF00A50EF
:101AD200D9260B50DA22000EDF6E56EF11F020EEFF
:101AE2001CF00A50D9260B50DA22DF50D8A47CEF22
:101AF2000DF07EEF0DF031EF0EF020EE18F00A50EF
:101B0200D9260B50DA22010EDBBE94EF0DF0010E46
:101B1200DB5007E1030EDE5CD8B092EF0DF094EFDC
:101B22000DF0CDEF0DF020EE18F00A50D9260B5033
:101B3200DA226F0078FF0CF06F0074FF0DF00C508A
:101B42000A240E6E0D500B200F6E020E0E24D96E5B
:101B5200000E0F20DA6E600047F0DFFF20EE18F073
:101B62000A50D9260B50DA226F0078FF0CF06F0072
:101B720074FF0DF0010E0C26000E0D2220EE18F05F
:101B82000A50D9260B50DA22600033F0DEFF6000E3
:101B920037F0DDFF56EF11F020EE18F00A50D9268B
:101BA2000B50DA22030EDE18DE10D8A4DBEF0DF0A4
:101BB200DDEF0DF01EEF0EF020EE18F00A50D926E0
:101BC2000B50DA226F0078FF0CF06F0074FF0DF0FB
:101BD2000C500A240E6E0D500B200F6E020E0E24B6
:101BE200D96E000E0F20DA6E600047F0DFFF20EEA4
:101BF20018F00A50D9260B50DA226F0078FF0CF049
:101C02006F0074FF0DF0010E0C26000E0D2220EE67
:101C120018F00A50D9260B50DA22600033F0DEFFAA
:101C2200600037F0DDFF20EE1FF00A50D9260B507E
:101C3200DA22010EDF6E56EF11F02C0E1118D8A425
:101C420025EF0EF027EF0EF0A2EF08F020EE1CF0C9
:101C52000A50D9260B50DA22010EDF6E56EF11F030
:101C620020EE1CF00A50D9260B50DA22DE04D8A44A
:101C72003DEF0EF03FEF0EF0DBEF10F020EE1AF02A
:101C82000A50D9260B50DA22010EDBBE55EF0EF0B8
:101C9200010EDB5007E10F0EDE5CD8B053EF0EF001
:101CA20055EF0EF088EF0FF020EE1EF00A50D92605
:101CB2000B50DA22DF50D8A461EF0EF063EF0EF082
:101CC200BFEF0EF03A0E116069EF0EF06BEF0EF0FF
:101CD20088EF0EF020EE1AF00A50D9260B50DA22C5
:101CE2006F0078FF0CF06F0074FF0DF00C500A24A7
:101CF2000E6E0D500B200F6E080E0E24D96E000EC4
:101D02000F20DA6E1138F00BDF6EADEF0EF0390EE8
:101D120011648EEF0EF090EF0EF0ADEF0EF020EEAC
:101D22001AF00A50D9260B50DA226F0078FF0CF015
:101D32006F0074FF0DF00C500A240E6E0D500B2034
:101D42000F6E080E0E24D96E000E0F20DA6E11509F
:101D5200100DF350900FDF6E20EE1EF00A50D926C0
:101D62000B50DA2210EE1EF00A50E1260B50E2224E
:101D7200E7500C6E0C28DF6E56EF11F020EE1EF0CD
:101D82000A50D9260B50DA22DE04D8A4CBEF0EF08B
:101D9200CDEF0EF02DEF0FF03A0E1160D3EF0EF0F3
:101DA200D5EF0EF0F5EF0EF011C00CF0D00E0C26B0
:101DB20020EE1AF00A50D9260B50DA226F0078FF73
:101DC2000DF06F0074FF0EF00D500A240F6E0E50CE
:101DD2000B20106E080E0F24D96E000E1020DA6E42
:101DE2000C50DF261BEF0FF0390E1164FBEF0EF0E3
:101DF200FDEF0EF01BEF0FF011C00CF0C90E0C2618
:101E020020EE1AF00A50D9260B50DA226F0078FF22
:101E12000DF06F0074FF0EF00D500A240F6E0E507D
:101E22000B20106E080E0F24D96E000E1020DA6EF1
:101E32000C50DF2620EE1EF00A50D9260B50DA2273
:101E420010EE1EF00A50E1260B50E222E7500C6E13
:101E52000C28DF6E56EF11F020EE1EF00A50D92644
:101E62000B50DA22020EDE18D8A43AEF0FF03CEF44
:101E72000FF056EF11F02C0E1118D8A443EF0FF00B
:101E820045EF0FF058EF0FF020EE1EF00A50D92662
:101E92000B50DA22000EDF6E20EE1AF00A50D9261D
:101EA2000B50DA22DE2A000EDD2256EF11F060001E
:101EB2002BF0D9FF60002FF0DAFF010EDE6E000E6C
:101EC200DD6E20EE1AF00A50D9260B50DA22000EEF
:101ED200DE6E000EDD6E20EE1EF00A50D9260B508B
:101EE200DA22000EDF6E20EE1AF00A50D9260B50CD
:101EF200DA22000EDE6E000EDD6E20EE1CF00A50BD
:101F0200D9260B50DA22000EDF6E56EF11F020EECA
:101F12001AF00A50D9260B50DA22010EDBBE9CEFD2
:101F22000FF0010EDB5009E10F0EDE5CD8A09CEF32
:101F32000FF09EEF0FF056EF11F020EE1EF00A5058
:101F4200D9260B50DA22DF50D8A4AAEF0FF0ACEF5B
:101F52000FF008EF10F03A0E1160B2EF0FF0B4EF8D
:101F62000FF0D1EF0FF020EE1AF00A50D9260B50E5
:101F7200DA226F0078FF0CF06F0074FF0DF00C5046
:101F82000A240E6E0D500B200F6E080E0E24D96E11
:101F9200000E0F20DA6E1138F00BDF6EF6EF0FF045
:101FA200390E1164D7EF0FF0D9EF0FF0F6EF0FF003
:101FB20020EE1AF00A50D9260B50DA226F0078FF71
:101FC2000CF06F0074FF0DF00C500A240E6E0D50D1
:101FD2000B200F6E080E0E24D96E000E0F20DA6E43
:101FE2001150100DF350900FDF6E20EE1EF00A50CC
:101FF200D9260B50DA2210EE1EF00A50E1260B50C1
:10200200E222E7500C6E0C28DF6E56EF11F020EE44
:102012001EF00A50D9260B50DA22DE04D8A414EF9F
:1020220010F016EF10F076EF10F03A0E11601CEF80
:1020320010F01EEF10F03EEF10F011C00CF0D00EB9
:102042000C2620EE1AF00A50D9260B50DA226F0025
:1020520078FF0DF06F0074FF0EF00D500A240F6E22
:102062000E500B20106E080E0F24D96E000E102099
:10207200DA6E0C50DF2664EF10F0390E116444EF73
:1020820010F046EF10F064EF10F011C00CF0C90E22
:102092000C2620EE1AF00A50D9260B50DA226F00D5
:1020A20078FF0DF06F0074FF0EF00D500A240F6ED2
:1020B2000E500B20106E080E0F24D96E000E102049
:1020C200DA6E0C50DF2620EE1EF00A50D9260B5095
:1020D200DA2210EE1EF00A50E1260B50E222E750FF
:1020E2000C6E0C28DF6E56EF11F020EE1EF00A5037
:1020F200D9260B50DA22020EDE18D8A483EF10F094
:1021020085EF10F0ABEF10F020EE1AF00A50D9264E
:102112000B50DA22000EDE6E000EDD6E20EE1CF099
:102122000A50D9260B50DA22000EDF6E20EE22F082
:102132000A50D9260B50DA22010EDF6E60002BF016
:10214200D9FF60002FF0DAFF080EDE6E000EDD6EA2
:1021520056EF11F060002BF0D9FF60002FF0DAFF8C
:10216200010EDE6E000EDD6E20EE1AF00A50D92648
:102172000B50DA22000EDE6E000EDD6E20EE1EF037
:102182000A50D9260B50DA22000EDF6E20EE1AF02A
:102192000A50D9260B50DA22000EDE6E000EDD6EDA
:1021A20020EE1CF00A50D9260B50DA22000EDF6E08
:1021B20056EF11F060002BF0D9FF60002FF0DAFF2C
:1021C200010EDE6E000EDD6E20EE18F00A50D926EA
:1021D2000B50DA22000EDE6E000EDD6E20EE1AF0DB
:1021E2000A50D9260B50DA22000EDE6E000EDD6E8A
:1021F20020EE1EF00A50D9260B50DA22000EDF6EB6
:1022020020EE1CF00A50D9260B50DA22000EDF6EA7
:1022120056EF11F0230E1118D8A412EF11F014EF9B
:1022220011F056EF11F060002BF0D9FF60002FF093
:10223200DAFF010EDE6E000EDD6E56EF11F0600069
:102242002BF0D9FF60002FF0DAFF6F0078FF0CF05F
:102252006F0074FF0DF00D50000AD8B433EF11F087
:1022620056EF11F00C50010AD8B46CEF08F0030AD3
:10227200D8B4A4EF08F0010AD8B4F6EF08F0070AC0
:10228200D8B46CEF09F0010AD8B42CEF0AF0030AB3
:10229200D8B4C9EF0BF0010AD8B470EF0DF00F0AF1
:1022A200D8B40BEF11F056EF11F0120017EC1BF03F
:1022B200840E016E000E026E75EC13F0360E016E86
:1022C200000E026EECEC18F00CEC1BF00009D8B416
:1022D2006DEF11F06FEF11F07AEF11F09FEC15F046
:1022E200216E360E056E000E066E21C007F054EC0C
:1022F20014F0360E016E000E026E81EC1AF002BE70
:102302008BEF11F0025008E10104D8A08BEF11F01D
:102312008DEF11F099EF11F0840E0A6E000E0B6E24
:10232200360E056E000E066EF8EC13F069EC08F03E
:102332000001A305D8A4A0EF11F0A2EF11F0DCEF89
:1023420011F0520E8EEC1AF0420E8EEC1AF00001D1
:102352008639F00B226E87512224D00F226E8839E3
:10236200F00B236E89512324D00F236E22508EEC62
:102372001AF023508EEC1AF0220E166E000E176E13
:10238200000E196E020E186E500EBDEC17F0000E04
:10239200166E010E176E000E196E010E186E500E9B
:1023A20088EC18F0010100518EEC1AF0000E0001C9
:1023B200A36F65EF11F0A405D8A4E2EF11F0E4EFEA
:1023C20011F036EF12F0520E8EEC1AF0530E8EEC24
:1023D2001AF000018639F00B226E87512224D00FA9
:1023E200226E8839F00B236E89512324D00F236E7D
:1023F20022508EEC1AF023508EEC1AF0220E166E3A
:10240200000E176E000E196E020E186E500EBDEC05
:1024120017F0000E166E010E176E8BC018F0196AB7
:10242200500E88EC18F0000E206E000E1F6E1FEF8B
:1024320012F0000E8EEC1AF01F4A202A00018B5176
:102442001B6E1C6A1B501F5C2050800A1D6E1C50A4
:10245200800A1D58D8A030EF12F032EF12F01AEFB6
:1024620012F0000EA46F65EF11F0A505D8A43CEFA1
:1024720012F03EEF12F084EF12F0570E8EEC1AF0CB
:10248200420E8EEC1AF000018639F00B226E875153
:102492002224D00F226E8839F00B236E8951232417
:1024A200D00F236E8AC024F022508EEC1AF02350F3
:1024B2008EEC1AF024508EEC1AF0220E166E000EDC
:1024C200176E000E196E030E186E500EBDEC17F04B
:1024D200220E166E000E176E000E196E020E186E88
:1024E200500EBDEC17F0000E166E010E176E000EA8
:1024F200196E010E186E500E88EC18F0000E0001D5
:10250200A56F65EF11F0A605D8A48AEF12F08CEF43
:1025120012F0E0EF12F0570E8EEC1AF0730E8EEC02
:102522001AF000018639F00B226E87512224D00F57
:10253200226E8839F00B236E89512324D00F236E2B
:10254200000E356E000E346E080E34241B6E000E23
:1025520035201C6E840E1B24D96E000E1C20DA6EF0
:10256200020E34241D6E000E35201E6E220E1D2416
:10257200E16E000E1E20E26E6F007FFFE7FF344A1D
:10258200352A35BECEEF12F0355009E1100E345C1B
:10259200D8A0CEEF12F0D0EF12F0A5EF12F0220E7B
:1025A200166E000E176E000E196E120E186E500E79
:1025B200BDEC17F0000E0001A66F65EF11F065EF9C
:1025C20011F0FEEF7FF0D5EC1AF00009D8B4ECEF71
:1025D20012F0EEEF12F028EF13F0FBEF12F042ECE4
:1025E2001BF074EF13F0ABEC1BF074EF13F0000E62
:1025F20074EF13F072C00AF073C00BF002D80CEF44
:1026020013F00500FA6E00016651FD6E6751FE6E11
:10261200FF6AFA5012000C6E0D6A0D50000AD8B40F
:1026220015EF13F0F8EF12F00C50010AD8B4F8EFDE
:1026320012F0030AD8B4F0EF12F0010AD8B4F4EFA2
:1026420012F0070AD8B4F8EF12F0F8EF12F0CAEC61
:102652001AF00009D8B430EF13F032EF13F073EF31
:1026620013F000018351030B0009D8B43BEF13F0C0
:102672003DEF13F049EF13F0010E0C6E8351030B83
:102682000D6E0C500D5E83510D18FC0B0D18836FEF
:102692006000F7F1D9FF6000FBF1DAFFDF50106E46
:1026A2007D4B7E2B7F07D8A080077F518011D8A455
:1026B2005DEF13F05FEF13F067EF13F074EC16F0B9
:1026C2000C6E0C500E6E0F6A6BEF13F0000E0F6E55
:1026D200030E0E6E0EC011F0105055EC1BF011508F
:1026E20074EF13F0030E1200000E066E000E056E5C
:1026F20005500124036E06500220046E020E0324CC
:10270200D96E000E0420DA6E000EDF6E054A062A2C
:1027120006BE95EF13F0065009E1040E055CD8A041
:1027220095EF13F097EF13F079EF13F0600007F0D5
:10273200D9FF60000BF0DAFF010EDE6E000EDD6ED7
:1027420020EE06F00150D9260250DA22000EDF6E8A
:1027520020EE07F00150D9260250DA22000EDF6E79
:1027620020EE08F00150D9260250DA22000EDF6E68
:1027720020EE18F00150D9260250DA22000EDE6E49
:10278200000EDD6E20EE1AF00150D9260250DA2238
:10279200000EDE6E000EDD6E20EE1CF00150D9261A
:1027A2000250DA22000EDF6E000E086E000E076E77
:1027B20007500124036E08500220046E1F0E0324EA
:1027C200D96E000E0420DA6E000EDF6E074A082A68
:1027D20008BEF5EF13F0085009E1040E075CD8A01B
:1027E200F5EF13F0F7EF13F0D9EF13F0120005C075
:1027F20001F006C002F0CCEC18F001500210D8A48F
:1028020005EF14F007EF14F02FEF14F020EE20F094
:102812000550D9260650DA226F0078FF07F06F00C4
:1028220074FF08F007500524D96E08500620DA6EAE
:10283200DF50096E20EE20F00550D9260650DA222C
:10284200DE2A000EDD2220EE22F00550D9260650A7
:10285200DA22DE06000EDD5A32EF14F0010E53EFDB
:1028620014F020EE20F00550D9260650DA22010E8F
:10287200DBBE46EF14F0010EDB5009E11E0EDE5CFA
:10288200D8A046EF14F048EF14F052EF14F020EE07
:1028920020F00550D9260650DA22000EDE6E000E18
:1028A200DD6E0950120005C001F006C002F0ABEC6B
:1028B20018F001500210D8A461EF14F063EF14F085
:1028C200AAEF14F020EE1EF00550D9260650DA22A7
:1028D2006F0078FF08F06F0074FF09F008500524BC
:1028E200D96E09500620DA6E60001FF0DFFF20EE7D
:1028F2001EF00550D9260650DA22DE2A000EDD220D
:1029020020EE22F00550D9260650DA22DE2A000EE9
:10291200DD2220EE1EF00550D9260650DA22010EE5
:10292200DBBE9EEF14F0010EDB5009E11E0EDE5CF1
:10293200D8A09EEF14F0A0EF14F0AAEF14F020EE4E
:102942001EF00550D9260650DA22000EDE6E000E69
:10295200DD6E1200000EBE6E000EBD6E000EBA6E6F
:10296200000EBB6E000EBC6E070EC66EC268F90E7C
:10297200C36EBF0EC46EC5683A0170697F0E606F88
:10298200F90E506F070E806F4069000E716F000ED6
:10299200816F000E516F000E416F000E616F000ECD
:1029A2005A6F000E5B6F000E6A6F000E6B6F000EA7
:1029B2007A6F000E7B6F000E826F000E426F060E62
:1029C200526F180E626F000E726F4369536963692A
:1029D2007369070E836F44695469646974690F0EE1
:1029E200846F0A0EE26F210E096F220E0A6F130E18
:1029F200166F170EE56F090EE16F12000001838951
:102A020023EF15F09AEC1BF0080E4FEF15F09AEC3D
:102A12001BF0070E4FEF15F000017F295AEC1BF057
:102A2200040E4FEF15F0070E00018119D8B41CEF08
:102A320015F01EEF15F020EF15F09DEC1BF00F0EB8
:102A42004FEF15F06CC00AF06DC00BF002D833EFF7
:102A520015F00500FA6E6051FD6E6151FE6EFF6A5F
:102A6200FA5012000C6E0D6A0D50000AD8B43CEFF9
:102A720015F014EF15F00C50010AD8B414EF15F04C
:102A8200030AD8B408EF15F0010AD8B403EF15F021
:102A9200070AD8B40DEF15F014EF15F01200E0ECB0
:102AA2001AF00009D8A458EF15F05AEF15F05DEFAF
:102AB20015F0040E9EEF15F000018351030B00097F
:102AC200D8B466EF15F068EF15F074EF15F0010E4B
:102AD2000E6E8351030B0F6E0E500F5E83510F1853
:102AE200FC0B0F18836F7F07D8A080077F518011DE
:102AF200D8B47EEF15F080EF15F08EEF15F097EC5D
:102B02001BF06000F7F1D9FF6000FBF1DAFFDF6E26
:102B120000017D4B7E2B5AEF15F0FFEC14F0106E86
:102B220097EC1BF06000F7F1D9FF6000FBF1DAFFD0
:102B3200DF6E00017D4B7E2B105012003901A3A7DE
:102B4200A5EF15F0A7EF15F09FEF15F0000E5E6EE2
:102B52003D01F9A7AFEF15F0B1EF15F0BEEF15F09B
:102B62005E8202D8BEEF15F00500FA6E5C50FD6E73
:102B72005D50FE6EFF6AFA5012003D01F9A3C4EFE8
:102B820015F0C6EF15F0D3EF15F05E8402D8D3EF3F
:102B920015F00500FA6E5A50FD6E5B50FE6EFF6A2C
:102BA200FA5012005E50D8B4D9EF15F0DBEF15F0F1
:102BB200E8EF15F002D8E8EF15F00500FA6E000113
:102BC200B851FD6EB951FE6EFF6AFA5012003D0116
:102BD200E8511200016E010E026E000183B7F4EF9C
:102BE20015F0F6EF15F031EF16F001C07CF0839589
:102BF2008387FC0E83170F0E816F010E7B6FF40E1D
:102C02007A6F83895E0E606F370E616F000E6C6F94
:102C1200000E6D6F5E0E626F370E636F000E6E6F89
:102C2200000E6F6F5E0E646F370E656F000E706F71
:102C3200000E716F5E0E666F370E676F000E726F59
:102C4200000E736F5A0E686F370E696F000E746F45
:102C5200000E756F87EC1BF026EC19F0000E026E69
:102C620002501200056E01500210D8B43BEF16F06C
:102C72003DEF16F05BEF16F00550020D600EF324E7
:102C8200D96E000EF420DA6E600007F0DEFF6000FD
:102C92000BF0DDFF0550020D6C0EF324D96E000E11
:102CA200F420DA6E60000FF0DEFF600013F0DDFF4B
:102CB20073EF16F00550020D600EF324D96E000E6C
:102CC200F420DA6E5E0EDE6E370EDD6E0550020DFA
:102CD2006C0EF324D96E000EF420DA6E000EDE6E56
:102CE200000EDD6E12000001838989EF16F09AEC66
:102CF2001BF0070EB1EF16F000017F295AEC1BF012
:102D0200030EB1EF16F09DEC1BF00A0EB1EF16F0B8
:102D12006CC00AF06DC00BF002D899EF16F00500F6
:102D2200FA6E6051FD6E6151FE6EFF6AFA5012003A
:102D32000C6E0D6A0D50000AD8B4A2EF16F084EFA3
:102D420016F00C50010AD8B484EF16F0030AD8B476
:102D520078EF16F0060AD8B47DEF16F084EF16F07D
:102D6200120013EC18F000018351030B0009D8B4D0
:102D7200BDEF16F0BFEF16F0CCEF16F0D5EC1AF05F
:102D82000009D8B4C7EF16F0C9EF16F0CCEF16F071
:102D9200100E0001816F00018151020D010EF3241A
:102DA200F66E100EF420F76EF86A000EF822090093
:102DB2006F00D4FF12F009006F00D4FF13F002D8A5
:102DC200ECEF16F00500FA6E1250FD6E1350FE6E17
:102DD200FF6AFA5012000001816F120087EC1BF0AB
:102DE200020E0001826F02EF17F042EC1BF026EF99
:102DF20017F0ABEC1BF026EF17F033EC1BF026EFCD
:102E020017F06EC00AF06FC00BF002D812EF17F085
:102E12000500FA6E6251FD6E6351FE6EFF6AFA5052
:102E220012000C6E0D6A0D50000AD8B41BEF17F099
:102E3200FEEF16F00C50020AD8B4F6EF16F0010AB3
:102E4200D8B4FAEF16F0FEEF16F01200FC0E0001F5
:102E52008317020E826F839536EF17F0A9EC1BF0F1
:102E62005AEF17F00F0E5AEF17F070C00AF071C048
:102E72000BF002D846EF17F00500FA6E6451FD6EB2
:102E82006551FE6EFF6AFA5012000C6E0D6A0D500B
:102E9200000AD8B44FEF17F033EF17F00C50020AC4
:102EA200D8B42FEF17F0010AD8B42FEF17F033EF91
:102EB20017F01200000E3D01EC6F000EED6F000ED8
:102EC200EE6F000EEF6F000EF06F000EF16FB00E9E
:102ED200F26F800EF36F000EF46FCF0EF56F000EDF
:102EE200F66F000EF76F000EF86F000EF96F000E0E
:102EF200FA6F640E016E370E026E69EC1BF0620E01
:102F0200016E370E026E64EC1BF0660E016E370E18
:102F1200026E6EEC1BF0000E5E6E12003901A3A170
:102F220095EF17F097EF17F099EF17F0BCEF17F046
:102F3200A2AF9EEF17F0A0EF17F0A2EF17F0BCEFD1
:102F420017F03D0179A5A8EF17F0AAEF17F0ACEF43
:102F520017F0BCEF17F079AFB1EF17F0B3EF17F03E
:102F6200B5EF17F0BCEF17F076A9BAEF17F0BCEF88
:102F720017F08FEF17F012001A6E1A50EBEC15F0E3
:102F82000009D8B4C7EF17F0C9EF17F0BEEF17F07A
:102F920016C001F017C002F018C003F019C004F007
:102FA2002EEC1AF0000E066E000E076E000E086E72
:102FB200000E096E9BEC1AF073EC1BF004EC1AF095
:102FC200E806D8B4E7EF17F0E9EF17F0DFEF17F0F4
:102FD2001200146E010E156E000183B5F3EF17F0A7
:102FE200F5EF17F011EF18F08385000E156E7F5183
:102FF2005AEC1BF01450D8B401EF18F003EF18F09C
:103002000AEF18F0040E0001816F3DEC19F00FEF8A
:1030120018F0030E0001816FBFEC1AF063EC1AF096
:103022001550120001EC1BF00009D8B41BEF18F088
:103032001DEF18F021EF18F0A6EC1BF03BEF18F093
:10304200EBEC1AF00009D8B429EF18F02BEF18F0C6
:103052002FEF18F0A0EC1BF03BEF18F0F6EC1AF093
:103062000009D8B437EF18F039EF18F03BEF18F039
:10307200A3EC1BF0120020EE02F00A50D9260B50EE
:10308200DA226F0078FF01F06F0074FF02F0600037
:103092002BF0D9FF60002FF0DAFF6F0078FF03F00A
:1030A2006F0074FF04F02EEC1AF0000E066E000E94
:1030B200076E000E086E000E096EA7EC1AF0020EE3
:1030C200120020EE02F00A50D9260B50DA226F00CD
:1030D20078FF01F06F0074FF02F060002BF0D9FF5F
:1030E20060002FF0DAFF6F0078FF03F06F0074FFCB
:1030F20004F02EEC1AF0000E066E000E076E000EA3
:10310200086E000E096EA7EC1AF0020E12001A6E7B
:103112001A50EBEC15F00009D8B492EF18F094EFC6
:1031220018F089EF18F016C001F017C002F018C0AD
:1031320003F019C004F02EEC1AF077EC1BF004EC4B
:103142001AF0E806D8B4A8EF18F0AAEF18F0A0EF2A
:1031520018F0120020EE22F00150D9260250DA2295
:10316200010EDBBEBFEF18F0010EDB5009E11E0EAF
:10317200DE5CD8A0BFEF18F0C1EF18F0C7EF18F06F
:10318200000E026E010E016ECBEF18F0000E026E01
:10319200000E016E120020EE22F00150D9260250DC
:1031A200DA22010EDBBEE1EF18F0010EDB5006E180
:1031B200DE04D8B0DFEF18F0E1EF18F0E7EF18F017
:1031C200000E026E010E016EEBEF18F0000E026EA1
:1031D200000E016E120020EE1EF00150D9260250A0
:1031E200DA22000EDE6E000EDD6E20EE20F00150BF
:1031F200D9260250DA22000EDE6E000EDD6E20EEBF
:1032020022F00150D9260250DA22000EDE6E000EA4
:10321200DD6E1200440EF66E360EF76E000EF86E7C
:1032220000EEA7F010EE11F009006F00D7FFEEFFDD
:10323200E550E150F9E100EE60F0240EEE6AE80696
:10324200FDE15E6A000157EF11F03D0173BF2CEF03
:1032520019F02EEF19F03CEF19F0000E796F000E05
:103262007A6F000E766F6C69510E3A015A6F510EE9
:103272005B6F3D01738F120000018351FC0B020949
:10328200836F7F058011D8A449EF19F04BEF19F035
:103292004DEF19F0FFEC14F0D88000017C3555ECAD
:1032A2001BF0040E12000AC001F00BC002F0000E67
:1032B200046E010E036E2EEC1AF0000E066E000E66
:1032C200076E000E086E000E096EA7EC1AF0040ECF
:1032D20012000AC001F00BC002F0000E046E020ED2
:1032E200036E2EEC1AF0000E066E000E076E000E34
:1032F200086E000E096EA7EC1AF0020E12000AC048
:1033020001F00BC002F0000E046E010E036E2EECF3
:103312001AF0000E066E000E076E000E086E000E0A
:10332200096EA7EC1AF0020E12000AC001F00BC0DF
:1033320002F0000E046E020E036E2EEC1AF0000E66
:10334200066E000E076E000E086E000E096EA7ECE8
:103352001AF0040E12000AC001F00BC002F0000EB7
:10336200046E020E036E2EEC1AF0000E066E000EB4
:10337200076E000E086E000E096EA7EC1AF0020E20
:1033820012000AC001F00BC002F0000E046E010E22
:10339200036E2EEC1AF0000E066E000E076E000E83
:1033A200086E000E096EA7EC1AF0020E12000AC097
:1033B20001F00BC002F0000E046E010E036E2EEC43
:1033C2001AF0000E066E000E076E000E086E000E5A
:1033D200096EA7EC1AF0040E12000AC001F00BC02D
:1033E20002F0000E046E020E036E2EEC1AF0000EB6
:1033F200066E000E076E000E086E000E096EA7EC38
:103402001AF0040E1200010E016E000183B50CEFDA
:103412001AF00EEF1AF018EF1AF083977C6987EC16
:103422001BF072EC1AF04FEC1BF082C001F001505D
:1034320012008EEC1BF08BEC1BF00009D8B424EFC9
:103442001AF026EF1AF02CEF1AF0000E5AEC1BF0CD
:10345200000E55EC1BF0000E1200000183A934EFA0
:103462001AF036EF1AF03FEF1AF001C07DF002C0F9
:103472007EF003C07FF004C080F083991200000E3A
:103482003901C06F000EC16F000EC26F000EC36F14
:10349200000EC46F000EC56F000EC66F000EC76F20
:1034A2001200040E3D01736F800E746F180E756F5B
:1034B200030E7B6F000E796F000E7A6F000E766F2F
:1034C2006C69120069EF1AF08FEC17F0B2EC16F08B
:1034D200000183B56FEF1AF071EF1AF065EF1AF081
:1034E2001200390193939395929F93913D017A91A2
:1034F2007A957A9F7A9D7A93769376957691120051
:1035020020EE22F00150D9260250DA226F0078FF15
:1035120001F06F0074FF02F01200016E3901A3A9DD
:1035220095EF1AF097EF1AF08FEF1AF0600007F09C
:10353200EAFD120006C001F007C002F008C003F065
:1035420009C004F0020E33EC16F0120006C001F0BE
:1035520007C002F008C003F009C004F0000E33EC0B
:1035620016F01200600E3901D96F000EDB6F000EEB
:10357200DD6F030EDF6F000EDE6F1200000183515C
:10358200FC0B0209836F7C517C2555EC1BF0030E6A
:1035920012003D0178BBD0EF1AF0D3EF1AF0010E02
:1035A200D4EF1AF0000E12003D0174BBDBEF1AF0EB
:1035B200DEEF1AF0010EDFEF1AF0000E12003D01ED
:1035C20078B1E6EF1AF0E9EF1AF0010EEAEF1AF01D
:1035D200000E12003D0179B5F1EF1AF0F4EF1AF086
:1035E200010EF5EF1AF0000E12003D0176B9FCEF64
:1035F2001AF0FFEF1AF0010E00EF1BF0000E12009E
:103602003D0179BF07EF1BF00AEF1BF0010E0BEF34
:103612001BF0000E12003901A3B712EF1BF015EFD9
:103622001BF0010E16EF1BF0000E120040EC1AF018
:1036320052EC1AF0ABEC14F0B3EC1AF05BEC17F0AE
:1036420012000000A1A2A3A4A527A7A8A9AAABAC17
:03365200ADAEAF6B
:103656005FEC1BF000018395020E826F0F0E1200C5
:103666005FEC1BF000018395000E826F0F0E1200B7
:1036760091EC1BF08EEC1BF049EC1BF012000001E4
:103686007F515AEC1BF03DEC19F0120000018395B6
:10369600000E826F0F0E12003D01739F000E796FB0
:1036A60078851200016E600007F06BFD1200016E56
:1036B600600007F06CFD12003D01739F7885738FE3
:1036C600120001C05AF002C05BF0120001C05CF0AB
:1036D60002C05DF0120001C0B8F002C0B9F01200DD
:1036E600000EEAEC17F01200010EEAEC17F01200D9
:1036F60091EC1BF0090E120094EC1BF0040E120064
:1037060094EC1BF0030E1200000E3D01796F1200BF
:103716003D016C5112003D01739B12003D01748DF9
:1037260012003D01749D12003D016A5112003D01D7
:10373600738D12003D01739D12003D0179951200B3
:103746003D01769912003D01799F1200010E12008B
:10375600020E1200050E1200010E120012001200D7
:0237660012004F
:04FFFC000BEF19F0FE
:020000040020DA
:10000000FF0FFF0FFF0FFF0FFF0FFF0FFF0FFF0F80
:020000040030CA
:0A000000ECFFF7FF9FFFFFFFFFFF7B
:00000001FF
