:04000000FEEF7FF0A0
:101000000008360A32F4345825302A782C8E29FA12
:1010100035CC36C836C43374367C36EC356C36DCA9
:1010200035DE2D6E2DCC352D2D2D2D2D2D2D2D2D4F
:101030002D2D2D2D2D2D2D2D2D2D2D2D2D2D2D2DE0
:101040002D2D2D2D2D2D2D2D2D2D2D2D2D2D2D2DD0
:101050002D2D2D2D2D2D0A0D000A44617461207453
:101060006F206265207772697474656E20746F20DA
:10107000454550524F4D3A0A0A0D00454550524FD2
:101080004D204869676820416464726573733A3023
:10109000782025780A0D00454550524F4D204C6F61
:1010A0007720416464726573733A30782025780A3A
:1010B0000D000A0D454550524F4D20526561642088
:1010C000446174613A0A0A0D0030782578202000C6
:0110D000001F
:1010D200116E20EF11F0520E1118D8A473EF08F020
:1010E20075EF08F081EF08F060002BF0D9FF600087
:1010F2002FF0DAFF020EDE6E000EDD6E56EF11F0FB
:10110200570E1118D8A488EF08F08AEF08F096EF6E
:1011120008F060002BF0D9FF60002FF0DAFF030E19
:10112200DE6E000EDD6E56EF11F060002BF0D9FF7F
:1011320060002FF0DAFF010EDE6E000EDD6E56EF5C
:1011420011F056EF11F0420E1118D8A4ABEF08F0CF
:10115200ADEF08F0C3EF08F020EE18F00A50D926E0
:101162000B50DA22000EDE6E000EDD6E60002BF0F8
:10117200D9FF60002FF0DAFF040EDE6E000EDD6E86
:1011820056EF11F0530E1118D8A4CAEF08F0CCEFA5
:1011920008F0EAEF08F020EE1CF00A50D9260B50B6
:1011A200DA22000EDF6E20EE18F00A50D9260B501C
:1011B200DA22000EDE6E000EDD6E60002BF0D9FF2B
:1011C20060002FF0DAFF050EDE6E000EDD6E56EFC8
:1011D20011F060002BF0D9FF60002FF0DAFF010E52
:1011E200DE6E000EDD6E56EF11F0420E1118D8A41D
:1011F200FDEF08F0FFEF08F027EF09F020EE1CF0FA
:101202000A50D9260B50DA22000EDF6E20EE18F0BB
:101212000A50D9260B50DA22000EDE6E000EDD6E69
:1012220020EE1AF00A50D9260B50DA22000EDE6E9A
:10123200000EDD6E60002BF0D9FF60002FF0DAFFA8
:10124200060EDE6E000EDD6E56EF11F0530E111813
:10125200D8A42EEF09F030EF09F060EF09F020EE8C
:101262001EF00A50D9260B50DA22000EDF6E20EE55
:101272001CF00A50D9260B50DA22000EDF6E20EE47
:1012820018F00A50D9260B50DA22000EDE6E000E3C
:10129200DD6E20EE1AF00A50D9260B50DA22000E2B
:1012A200DE6E000EDD6E60002BF0D9FF60002FF0C5
:1012B200DAFF070EDE6E000EDD6E56EF11F06000F3
:1012C2002BF0D9FF60002FF0DAFF010EDE6E000E68
:1012D200DD6E56EF11F020EE18F00A50D9260B50B1
:1012E200DA22010EDBBE82EF09F0010EDB5007E1CC
:1012F200030EDE5CD8B080EF09F082EF09F0BBEF9D
:1013020009F020EE18F00A50D9260B50DA226F00AD
:1013120078FF0CF06F0074FF0DF00C500A240E6E73
:101322000D500B200F6E020E0E24D96E000E0F20F0
:10133200DA6E600047F0DFFF20EE18F00A50D9267F
:101342000B50DA226F0078FF0CF06F0074FF0DF083
:10135200010E0C26000E0D2220EE18F00A50D9269E
:101362000B50DA22600033F0DEFF600037F0DDFF61
:1013720056EF11F020EE18F00A50D9260B50DA225F
:10138200030EDE18DE10D8A4C9EF09F0CBEF09F086
:1013920016EF0AF020EE18F00A50D9260B50DA2286
:1013A2006F0078FF0CF06F0074FF0DF00C500A24F0
:1013B2000E6E0D500B200F6E020E0E24D96E000E13
:1013C2000F20DA6E600047F0DFFF20EE18F00A50BF
:1013D200D9260B50DA226F0078FF0CF06F0074FFF1
:1013E2000DF0010E0C26000E0D2220EE18F00A5010
:1013F200D9260B50DA22600033F0DEFF600037F0AE
:10140200DDFF20EE1FF00A50D9260B50DA22010E22
:10141200DF6E60002BF0D9FF60002FF0DAFF080EBC
:10142200DE6E000EDD6E56EF11F020EE18F00A505F
:10143200D9260B50DA22000EDE6E000EDD6E600041
:101442002BF0D9FF60002FF0DAFF010EDE6E000EE6
:10145200DD6E56EF11F020EE1CF00A50D9260B502B
:10146200DA22DF50D8A438EF0AF03AEF0AF0EDEFB3
:101472000AF020EE18F00A50D9260B50DA22010E9B
:10148200DBBE50EF0AF0010EDB5007E1030EDE5C1B
:10149200D8B04EEF0AF050EF0AF089EF0AF020EED2
:1014A20018F00A50D9260B50DA226F0078FF0CF0A0
:1014B2006F0074FF0DF00C500A240E6E0D500B20BD
:1014C2000F6E020E0E24D96E000E0F20DA6E60002F
:1014D20047F0DFFF20EE18F00A50D9260B50DA222F
:1014E2006F0078FF0CF06F0074FF0DF0010E0C26F8
:1014F200000E0D2220EE18F00A50D9260B50DA22E7
:10150200600033F0DEFF600037F0DDFF56EF11F0D0
:1015120020EE18F00A50D9260B50DA22030EDE18FC
:10152200DE10D8A497EF0AF099EF0AF0DAEF0AF08A
:1015320020EE18F00A50D9260B50DA226F0078FFFD
:101542000CF06F0074FF0DF00C500A240E6E0D505B
:101552000B200F6E020E0E24D96E000E0F20DA6ED3
:10156200600047F0DFFF20EE18F00A50D9260B503A
:10157200DA226F0078FF0CF06F0074FF0DF0010E9D
:101582000C26000E0D2220EE18F00A50D9260B5020
:10159200DA22600033F0DEFF600037F0DDFF20EE7C
:1015A2001FF00A50D9260B50DA22010EDF6E56EFD9
:1015B20011F02C0E1118D8A4E1EF0AF0E3EF0AF0B3
:1015C200A2EF08F020EE1CF00A50D9260B50DA22C6
:1015D200010EDF6E56EF11F020EE1CF00A50D926F4
:1015E2000B50DA22DE04D8A4F9EF0AF0FBEF0AF07E
:1015F200A3EF0BF020EE1AF00A50D9260B50DA2294
:10160200DE50DE10D8A408EF0BF00AEF0BF04EEF1D
:101612000BF03A0E116010EF0BF012EF0BF01DEF12
:101622000BF020EE07F00A50D9260B50DA221138BF
:10163200F00BDF6E30EF0BF0390E116423EF0BF07D
:1016420025EF0BF030EF0BF020EE07F00A50D92611
:101652000B50DA221150100DF350900FDF6E20EE76
:101662001AF00A50D9260B50DA226F0078FF0CF0DC
:101672006F0074FF0DF0010E0C26000E0D2220EEFD
:101682001AF00A50D9260B50DA22600033F0DEFF3E
:10169200600037F0DDFF56EF11F020EE1AF00A502D
:1016A200D9260B50DA22DE04DE10D8A45BEF0BF051
:1016B2005DEF0BF056EF11F03A0E116063EF0BF095
:1016C20065EF0BF073EF0BF011C00CF0D00E0C268F
:1016D20020EE07F00A50D9260B50DA220C50DF26F2
:1016E20087EF0BF0390E116479EF0BF07BEF0BF003
:1016F20087EF0BF011C00CF0C90E0C2620EE07F09C
:101702000A50D9260B50DA220C50DF2620EE1CF0AC
:101712000A50D9260B50DA22000EDF6E20EE20F09E
:101722000A50D9260B50DA22010EDF6E60002BF030
:10173200D9FF60002FF0DAFF080EDE6E000EDD6EBC
:1017420056EF11F060002BF0D9FF60002FF0DAFFA6
:10175200010EDE6E000EDD6E20EE1AF00A50D92662
:101762000B50DA22000EDE6E000EDD6E20EE1EF051
:101772000A50D9260B50DA22000EDF6E20EE1CF042
:101782000A50D9260B50DA22000EDF6E56EF11F006
:1017920020EE1CF00A50D9260B50DA22DF50D8A4D2
:1017A200D5EF0BF0D7EF0BF08AEF0CF020EE18F02C
:1017B2000A50D9260B50DA22010EDBBEEDEF0BF0F8
:1017C200010EDB5007E1030EDE5CD8B0EBEF0BF04D
:1017D200EDEF0BF026EF0CF020EE18F00A50D926B0
:1017E2000B50DA226F0078FF0CF06F0074FF0DF0DF
:1017F2000C500A240E6E0D500B200F6E020E0E249A
:10180200D96E000E0F20DA6E600047F0DFFF20EE87
:1018120018F00A50D9260B50DA226F0078FF0CF02C
:101822006F0074FF0DF0010E0C26000E0D2220EE4B
:1018320018F00A50D9260B50DA22600033F0DEFF8E
:10184200600037F0DDFF56EF11F020EE18F00A507D
:10185200D9260B50DA22030EDE18DE10D8A434EF9C
:101862000CF036EF0CF077EF0CF020EE18F00A5087
:10187200D9260B50DA226F0078FF0CF06F0074FF4C
:101882000DF00C500A240E6E0D500B200F6E020E3E
:101892000E24D96E000E0F20DA6E600047F0DFFFD3
:1018A20020EE18F00A50D9260B50DA226F0078FF8A
:1018B2000CF06F0074FF0DF0010E0C26000E0D22CD
:1018C20020EE18F00A50D9260B50DA22600033F0CD
:1018D200DEFF600037F0DDFF20EE1FF00A50D92650
:1018E2000B50DA22010EDF6E56EF11F02C0E11189A
:1018F200D8A47EEF0CF080EF0CF0A2EF08F020EEFF
:101902001CF00A50D9260B50DA22010EDF6E56EF78
:1019120011F020EE1CF00A50D9260B50DA22DE0418
:10192200D8A496EF0CF098EF0CF04AEF0DF020EEF1
:101932001AF00A50D9260B50DA22DE50DE10D8A453
:10194200A5EF0CF0A7EF0CF0EBEF0CF03A0E1160E4
:10195200ADEF0CF0AFEF0CF0BAEF0CF020EE06F0AA
:101962000A50D9260B50DA221138F00BDF6ECDEF78
:101972000CF0390E1164C0EF0CF0C2EF0CF0CDEF99
:101982000CF020EE06F00A50D9260B50DA22115044
:10199200100DF350900FDF6E20EE1AF00A50D92688
:1019A2000B50DA226F0078FF0CF06F0074FF0DF01D
:1019B200010E0C26000E0D2220EE1AF00A50D92636
:1019C2000B50DA22600033F0DEFF600037F0DDFFFB
:1019D20056EF11F020EE1AF00A50D9260B50DA22F7
:1019E200DE04DE10D8A4F8EF0CF0FAEF0CF056EF9C
:1019F20011F03A0E116000EF0DF002EF0DF010EF52
:101A02000DF011C00CF0D00E0C2620EE06F00A509C
:101A1200D9260B50DA220C50DF2624EF0DF0390EB6
:101A2200116416EF0DF018EF0DF024EF0DF011C058
:101A32000CF0C90E0C2620EE06F00A50D9260B50E7
:101A4200DA220C50DF2620EE1CF00A50D9260B5069
:101A5200DA22000EDF6E20EE1AF00A50D9260B5061
:101A6200DA22000EDE6E000EDD6E20EE21F00A504C
:101A7200D9260B50DA22010EDF6E60002BF0D9FF5F
:101A820060002FF0DAFF080EDE6E000EDD6E56EFFC
:101A920011F060002BF0D9FF60002FF0DAFF010E89
:101AA200DE6E000EDD6E20EE1AF00A50D9260B50C3
:101AB200DA22000EDE6E000EDD6E20EE1EF00A50FF
:101AC200D9260B50DA22000EDF6E20EE1CF00A50EF
:101AD200D9260B50DA22000EDF6E56EF11F020EEFF
:101AE2001CF00A50D9260B50DA22DF50D8A47CEF22
:101AF2000DF07EEF0DF031EF0EF020EE18F00A50EF
:101B0200D9260B50DA22010EDBBE94EF0DF0010E46
:101B1200DB5007E1030EDE5CD8B092EF0DF094EFDC
:101B22000DF0CDEF0DF020EE18F00A50D9260B5033
:101B3200DA226F0078FF0CF06F0074FF0DF00C508A
:101B42000A240E6E0D500B200F6E020E0E24D96E5B
:101B5200000E0F20DA6E600047F0DFFF20EE18F073
:101B62000A50D9260B50DA226F0078FF0CF06F0072
:101B720074FF0DF0010E0C26000E0D2220EE18F05F
:101B82000A50D9260B50DA22600033F0DEFF6000E3
:101B920037F0DDFF56EF11F020EE18F00A50D9268B
:101BA2000B50DA22030EDE18DE10D8A4DBEF0DF0A4
:101BB200DDEF0DF01EEF0EF020EE18F00A50D926E0
:101BC2000B50DA226F0078FF0CF06F0074FF0DF0FB
:101BD2000C500A240E6E0D500B200F6E020E0E24B6
:101BE200D96E000E0F20DA6E600047F0DFFF20EEA4
:101BF20018F00A50D9260B50DA226F0078FF0CF049
:101C02006F0074FF0DF0010E0C26000E0D2220EE67
:101C120018F00A50D9260B50DA22600033F0DEFFAA
:101C2200600037F0DDFF20EE1FF00A50D9260B507E
:101C3200DA22010EDF6E56EF11F02C0E1118D8A425
:101C420025EF0EF027EF0EF0A2EF08F020EE1CF0C9
:101C52000A50D9260B50DA22010EDF6E56EF11F030
:101C620020EE1CF00A50D9260B50DA22DE04D8A44A
:101C72003DEF0EF03FEF0EF0DBEF10F020EE1AF02A
:101C82000A50D9260B50DA22010EDBBE55EF0EF0B8
:101C9200010EDB5007E10F0EDE5CD8B053EF0EF001
:101CA20055EF0EF088EF0FF020EE1EF00A50D92605
:101CB2000B50DA22DF50D8A461EF0EF063EF0EF082
:101CC200BFEF0EF03A0E116069EF0EF06BEF0EF0FF
:101CD20088EF0EF020EE1AF00A50D9260B50DA22C5
:101CE2006F0078FF0CF06F0074FF0DF00C500A24A7
:101CF2000E6E0D500B200F6E080E0E24D96E000EC4
:101D02000F20DA6E1138F00BDF6EADEF0EF0390EE8
:101D120011648EEF0EF090EF0EF0ADEF0EF020EEAC
:101D22001AF00A50D9260B50DA226F0078FF0CF015
:101D32006F0074FF0DF00C500A240E6E0D500B2034
:101D42000F6E080E0E24D96E000E0F20DA6E11509F
:101D5200100DF350900FDF6E20EE1EF00A50D926C0
:101D62000B50DA2210EE1EF00A50E1260B50E2224E
:101D7200E7500C6E0C28DF6E56EF11F020EE1EF0CD
:101D82000A50D9260B50DA22DE04D8A4CBEF0EF08B
:101D9200CDEF0EF02DEF0FF03A0E1160D3EF0EF0F3
:101DA200D5EF0EF0F5EF0EF011C00CF0D00E0C26B0
:101DB20020EE1AF00A50D9260B50DA226F0078FF73
:101DC2000DF06F0074FF0EF00D500A240F6E0E50CE
:101DD2000B20106E080E0F24D96E000E1020DA6E42
:101DE2000C50DF261BEF0FF0390E1164FBEF0EF0E3
:101DF200FDEF0EF01BEF0FF011C00CF0C90E0C2618
:101E020020EE1AF00A50D9260B50DA226F0078FF22
:101E12000DF06F0074FF0EF00D500A240F6E0E507D
:101E22000B20106E080E0F24D96E000E1020DA6EF1
:101E32000C50DF2620EE1EF00A50D9260B50DA2273
:101E420010EE1EF00A50E1260B50E222E7500C6E13
:101E52000C28DF6E56EF11F020EE1EF00A50D92644
:101E62000B50DA22020EDE18D8A43AEF0FF03CEF44
:101E72000FF056EF11F02C0E1118D8A443EF0FF00B
:101E820045EF0FF058EF0FF020EE1EF00A50D92662
:101E92000B50DA22000EDF6E20EE1AF00A50D9261D
:101EA2000B50DA22DE2A000EDD2256EF11F060001E
:101EB2002BF0D9FF60002FF0DAFF010EDE6E000E6C
:101EC200DD6E20EE1AF00A50D9260B50DA22000EEF
:101ED200DE6E000EDD6E20EE1EF00A50D9260B508B
:101EE200DA22000EDF6E20EE1AF00A50D9260B50CD
:101EF200DA22000EDE6E000EDD6E20EE1CF00A50BD
:101F0200D9260B50DA22000EDF6E56EF11F020EECA
:101F12001AF00A50D9260B50DA22010EDBBE9CEFD2
:101F22000FF0010EDB5009E10F0EDE5CD8A09CEF32
:101F32000FF09EEF0FF056EF11F020EE1EF00A5058
:101F4200D9260B50DA22DF50D8A4AAEF0FF0ACEF5B
:101F52000FF008EF10F03A0E1160B2EF0FF0B4EF8D
:101F62000FF0D1EF0FF020EE1AF00A50D9260B50E5
:101F7200DA226F0078FF0CF06F0074FF0DF00C5046
:101F82000A240E6E0D500B200F6E080E0E24D96E11
:101F9200000E0F20DA6E1138F00BDF6EF6EF0FF045
:101FA200390E1164D7EF0FF0D9EF0FF0F6EF0FF003
:101FB20020EE1AF00A50D9260B50DA226F0078FF71
:101FC2000CF06F0074FF0DF00C500A240E6E0D50D1
:101FD2000B200F6E080E0E24D96E000E0F20DA6E43
:101FE2001150100DF350900FDF6E20EE1EF00A50CC
:101FF200D9260B50DA2210EE1EF00A50E1260B50C1
:10200200E222E7500C6E0C28DF6E56EF11F020EE44
:102012001EF00A50D9260B50DA22DE04D8A414EF9F
:1020220010F016EF10F076EF10F03A0E11601CEF80
:1020320010F01EEF10F03EEF10F011C00CF0D00EB9
:102042000C2620EE1AF00A50D9260B50DA226F0025
:1020520078FF0DF06F0074FF0EF00D500A240F6E22
:102062000E500B20106E080E0F24D96E000E102099
:10207200DA6E0C50DF2664EF10F0390E116444EF73
:1020820010F046EF10F064EF10F011C00CF0C90E22
:102092000C2620EE1AF00A50D9260B50DA226F00D5
:1020A20078FF0DF06F0074FF0EF00D500A240F6ED2
:1020B2000E500B20106E080E0F24D96E000E102049
:1020C200DA6E0C50DF2620EE1EF00A50D9260B5095
:1020D200DA2210EE1EF00A50E1260B50E222E750FF
:1020E2000C6E0C28DF6E56EF11F020EE1EF00A5037
:1020F200D9260B50DA22020EDE18D8A483EF10F094
:1021020085EF10F0ABEF10F020EE1AF00A50D9264E
:102112000B50DA22000EDE6E000EDD6E20EE1CF099
:102122000A50D9260B50DA22000EDF6E20EE22F082
:102132000A50D9260B50DA22010EDF6E60002BF016
:10214200D9FF60002FF0DAFF080EDE6E000EDD6EA2
:1021520056EF11F060002BF0D9FF60002FF0DAFF8C
:10216200010EDE6E000EDD6E20EE1AF00A50D92648
:102172000B50DA22000EDE6E000EDD6E20EE1EF037
:102182000A50D9260B50DA22000EDF6E20EE1AF02A
:102192000A50D9260B50DA22000EDE6E000EDD6EDA
:1021A20020EE1CF00A50D9260B50DA22000EDF6E08
:1021B20056EF11F060002BF0D9FF60002FF0DAFF2C
:1021C200010EDE6E000EDD6E20EE18F00A50D926EA
:1021D2000B50DA22000EDE6E000EDD6E20EE1AF0DB
:1021E2000A50D9260B50DA22000EDE6E000EDD6E8A
:1021F20020EE1EF00A50D9260B50DA22000EDF6EB6
:1022020020EE1CF00A50D9260B50DA22000EDF6EA7
:1022120056EF11F0230E1118D8A412EF11F014EF9B
:1022220011F056EF11F060002BF0D9FF60002FF093
:10223200DAFF010EDE6E000EDD6E56EF11F0600069
:102242002BF0D9FF60002FF0DAFF6F0078FF0CF05F
:102252006F0074FF0DF00D50000AD8B433EF11F087
:1022620056EF11F00C50010AD8B46CEF08F0030AD3
:10227200D8B4A4EF08F0010AD8B4F6EF08F0070AC0
:10228200D8B46CEF09F0010AD8B42CEF0AF0030AB3
:10229200D8B4C9EF0BF0010AD8B470EF0DF00F0AF1
:1022A200D8B40BEF11F056EF11F01200D2EC1AF085
:1022B200840E016E000E026E3DEC13F0360E016EBE
:1022C200000E026EB4EC18F0C7EC1AF00009D8B494
:1022D2006DEF11F06FEF11F07AEF11F067EC15F07E
:1022E200336E360E056E000E066E33C007F01CEC20
:1022F20014F0360E016E000E026E49EC1AF002BEA8
:102302008BEF11F0025008E10104D8A08BEF11F01D
:102312008DEF11F099EF11F0840E0A6E000E0B6E24
:10232200360E056E000E066EC0EC13F069EC08F076
:102332000001A305D8A4A0EF11F0A2EF11F0CBEF9A
:1023420011F08639F00B216E87512124D00F216EB6
:102352008839F00B226E89512224D00F226E210E71
:10236200166E000E176E000E196E020E186E500ECB
:1023720085EC17F0000E166E010E176E000E196E28
:10238200010E186E500E50EC18F0000E0001A36FF3
:1023920065EF11F0A405D8A4D1EF11F0D3EF11F03D
:1023A20015EF12F08639F00B216E87512124D00FE0
:1023B200216E8839F00B226E89512224D00F226EB1
:1023C200210E166E000E176E000E196E020E186E9A
:1023D200500E85EC17F0000E166E010E176E8BC0B4
:1023E20018F0196A500E50EC18F0000E206E000E14
:1023F2001F6EFEEF11F01F4A202A00018B511B6E47
:102402001C6A1B501F5C2050800A1D6E1C50800AE3
:102412001D58D8A00FEF12F011EF12F0FCEF11F0DF
:10242200000EA46F65EF11F0A505D8A41BEF12F002
:102432001DEF12F053EF12F08639F00B216E875127
:102442002124D00F216E8839F00B226E895122246B
:10245200D00F226E8AC023F0210E166E000E176E68
:10246200000E196E030E186E500E85EC17F0210E39
:10247200166E000E176E000E196E020E186E500EBA
:1024820085EC17F0000E166E010E176E000E196E17
:10249200010E186E500E50EC18F0000E0001A56FE0
:1024A20065EF11F0A605D8A459EF12F05BEF12F018
:1024B200A8EF12F08639F00B216E87512124D00F3C
:1024C200216E8839F00B226E89512224D00F226EA0
:1024D200000E356E000E346E080E34241B6E000E94
:1024E20035201C6E840E1B24D96E000E1C20DA6E61
:1024F200020E34241D6E000E35201E6E210E1D2488
:10250200E16E000E1E20E26E6F007FFFE7FF344A8D
:10251200352A35BE96EF12F0355009E1100E345CC3
:10252200D8A096EF12F098EF12F06DEF12F0210E94
:10253200166E000E176E000E196E120E186E500EE9
:1025420085EC17F0000E0001A66F65EF11F065EF44
:1025520011F0FEEF7FF090EC1AF00009D8B4B4EF5E
:1025620012F0B6EF12F0F0EF12F0C3EF12F0FDEC42
:102572001AF03CEF13F066EC1BF03CEF13F0000E88
:102582003CEF13F072C00AF073C00BF002D8D4EF24
:1025920012F00500FA6E00016651FD6E6751FE6E83
:1025A200FF6AFA5012000C6E0D6A0D50000AD8B480
:1025B200DDEF12F0C0EF12F00C50010AD8B4C0EFF8
:1025C20012F0030AD8B4B8EF12F0010AD8B4BCEF83
:1025D20012F0070AD8B4C0EF12F0C0EF12F085EC87
:1025E2001AF00009D8B4F8EF12F0FAEF12F03BEF4C
:1025F20013F000018351030B0009D8B403EF13F069
:1026020005EF13F011EF13F0010E0C6E8351030B63
:102612000D6E0C500D5E83510D18FC0B0D18836F5F
:102622006000F7F1D9FF6000FBF1DAFFDF50106EB6
:102632007D4B7E2B7F07D8A080077F518011D8A4C5
:1026420025EF13F027EF13F02FEF13F03CEC16F009
:102652000C6E0C500E6E0F6A33EF13F0000E0F6EFD
:10266200030E0E6E0EC011F0105010EC1BF0115044
:102672003CEF13F0030E1200000E066E000E056E04
:1026820005500124036E06500220046E020E03243C
:10269200D96E000E0420DA6E000EDF6E054A062A9D
:1026A20006BE5DEF13F0065009E1040E055CD8A0EA
:1026B2005DEF13F05FEF13F041EF13F0600007F0EE
:1026C200D9FF60000BF0DAFF010EDE6E000EDD6E48
:1026D20020EE06F00150D9260250DA22000EDF6EFB
:1026E20020EE07F00150D9260250DA22000EDF6EEA
:1026F20020EE08F00150D9260250DA22000EDF6ED9
:1027020020EE18F00150D9260250DA22000EDE6EB9
:10271200000EDD6E20EE1AF00150D9260250DA22A8
:10272200000EDE6E000EDD6E20EE1CF00150D9268A
:102732000250DA22000EDF6E000E086E000E076EE7
:1027420007500124036E08500220046E1F0E03245A
:10275200D96E000E0420DA6E000EDF6E074A082AD8
:1027620008BEBDEF13F0085009E1040E075CD8A0C3
:10277200BDEF13F0BFEF13F0A1EF13F0120005C08D
:1027820001F006C002F094EC18F001500210D8A437
:10279200CDEF13F0CFEF13F0F7EF13F020EE20F0B0
:1027A2000550D9260650DA226F0078FF07F06F0035
:1027B20074FF08F007500524D96E08500620DA6E1F
:1027C200DF50096E20EE20F00550D9260650DA229D
:1027D200DE2A000EDD2220EE22F00550D926065018
:1027E200DA22DE06000EDD5AFAEF13F0010E1BEFBD
:1027F20014F020EE20F00550D9260650DA22010E00
:10280200DBBE0EEF14F0010EDB5009E11E0EDE5CA2
:10281200D8A00EEF14F010EF14F01AEF14F020EE1F
:1028220020F00550D9260650DA22000EDE6E000E88
:10283200DD6E0950120005C001F006C002F073EC13
:1028420018F001500210D8A429EF14F02BEF14F065
:1028520072EF14F020EE1EF00550D9260650DA224F
:102862006F0078FF08F06F0074FF09F0085005242C
:10287200D96E09500620DA6E60001FF0DFFF20EEED
:102882001EF00550D9260650DA22DE2A000EDD227D
:1028920020EE22F00550D9260650DA22DE2A000E5A
:1028A200DD2220EE1EF00550D9260650DA22010E56
:1028B200DBBE66EF14F0010EDB5009E11E0EDE5C9A
:1028C200D8A066EF14F068EF14F072EF14F020EE67
:1028D2001EF00550D9260650DA22000EDE6E000EDA
:1028E200DD6E1200000EBE6E000EBD6E000EBA6EE0
:1028F200000EBB6E000EBC6E070EC66EC268F90EED
:10290200C36EBF0EC46EC5683A0170697F0E606FF8
:10291200F90E506F070E806F4069000E716F000E46
:10292200816F000E516F000E416F000E616F000E3D
:102932005A6F000E5B6F000E6A6F000E6B6F000E17
:102942007A6F000E7B6F000E826F000E426F060ED2
:10295200526F180E626F000E726F4369536963699A
:102962007369070E836F44695469646974690F0E51
:10297200846F0A0EE26F210E096F220E0A6F130E88
:10298200166F170EE56F090EE16F120000018389C1
:10299200EBEF14F055EC1BF0080E17EF15F055ECA9
:1029A2001BF0070E17EF15F000017F2915EC1BF045
:1029B200040E17EF15F0070E00018119D8B4E4EFE9
:1029C20014F0E6EF14F0E8EF14F058EC1BF00F0EE1
:1029D20017EF15F06CC00AF06DC00BF002D8FBEFD8
:1029E20014F00500FA6E6051FD6E6151FE6EFF6AD1
:1029F200FA5012000C6E0D6A0D50000AD8B404EFA2
:102A020015F0DCEF14F00C50010AD8B4DCEF14F02E
:102A1200030AD8B4D0EF14F0010AD8B4CBEF14F003
:102A2200070AD8B4D5EF14F0DCEF14F012009BECD7
:102A32001AF00009D8A420EF15F022EF15F025EFC7
:102A420015F0040E66EF15F000018351030B000927
:102A5200D8B42EEF15F030EF15F03CEF15F0010E63
:102A62000E6E8351030B0F6E0E500F5E83510F18C3
:102A7200FC0B0F18836F7F07D8A080077F5180114E
:102A8200D8B446EF15F048EF15F056EF15F052ECBA
:102A92001BF06000F7F1D9FF6000FBF1DAFFDF6E97
:102AA20000017D4B7E2B22EF15F0C7EC14F0106E67
:102AB20052EC1BF06000F7F1D9FF6000FBF1DAFF86
:102AC200DF6E00017D4B7E2B105012003901A3A74F
:102AD2006DEF15F06FEF15F067EF15F0000E5E6EFB
:102AE2003D01F9A777EF15F079EF15F086EF15F0B4
:102AF2005E8202D886EF15F00500FA6E5C50FD6E1C
:102B02005D50FE6EFF6AFA5012003D01F9A38CEF90
:102B120015F08EEF15F09BEF15F05E8402D89BEF57
:102B220015F00500FA6E5A50FD6E5B50FE6EFF6A9C
:102B3200FA5012005E50D8B4A1EF15F0A3EF15F0D1
:102B4200B0EF15F002D8B0EF15F00500FA6E0001F3
:102B5200B851FD6EB951FE6EFF6AFA5012003D0186
:102B6200E8511200016E010E026E000183B7BCEF44
:102B720015F0BEEF15F0F9EF15F001C07CF083956A
:102B82008387FC0E83170F0E816F010E7B6FF40E8D
:102B92007A6F8389D40E606F360E616F000E6C6F90
:102BA200000E6D6FD40E626F360E636F000E6E6F85
:102BB200000E6F6FD40E646F360E656F000E706F6D
:102BC200000E716FD40E666F360E676F000E726F55
:102BD200000E736FD00E686F360E696F000E746F41
:102BE200000E756F42EC1BF0EEEC18F0000E026E58
:102BF20002501200056E01500210D8B403EF16F015
:102C020005EF16F023EF16F00550020D600EF324C7
:102C1200D96E000EF420DA6E600007F0DEFF60006D
:102C22000BF0DDFF0550020D6C0EF324D96E000E81
:102C3200F420DA6E60000FF0DEFF600013F0DDFFBB
:102C42003BEF16F00550020D600EF324D96E000E14
:102C5200F420DA6ED40EDE6E360EDD6E0550020DF5
:102C62006C0EF324D96E000EF420DA6E000EDE6EC6
:102C7200000EDD6E12000001838951EF16F055EC53
:102C82001BF0070E79EF16F000017F2915EC1BF0FF
:102C9200030E79EF16F058EC1BF00A0E79EF16F0DE
:102CA2006CC00AF06DC00BF002D861EF16F005009F
:102CB200FA6E6051FD6E6151FE6EFF6AFA501200AB
:102CC2000C6E0D6A0D50000AD8B46AEF16F04CEF84
:102CD20016F00C50010AD8B44CEF16F0030AD8B41F
:102CE20040EF16F0060AD8B445EF16F04CEF16F096
:102CF2001200DBEC17F000018351030B0009D8B47A
:102D020085EF16F087EF16F094EF16F090EC1AF0BC
:102D12000009D8B48FEF16F091EF16F094EF16F089
:102D2200100E0001816F00018151020D010EF3248A
:102D3200F66E100EF420F76EF86A000EF822090003
:102D42006F00D4FF12F009006F00D4FF13F002D815
:102D5200B4EF16F00500FA6E1250FD6E1350FE6EBF
:102D6200FF6AFA5012000001816F120042EC1BF060
:102D7200020E0001826FCAEF16F0FDEC1AF0EEEFC0
:102D820016F066EC1BF0EEEF16F0EEEC1AF0EEEF3A
:102D920016F06EC00AF06FC00BF002D8DAEF16F030
:102DA2000500FA6E6251FD6E6351FE6EFF6AFA50C3
:102DB20012000C6E0D6A0D50000AD8B4E3EF16F043
:102DC200C6EF16F00C50020AD8B4BEEF16F0010A94
:102DD200D8B4C2EF16F0C6EF16F01200FC0E0001D6
:102DE2008317020E826F8395FEEF16F064EC1BF0E0
:102DF20022EF17F00F0E22EF17F070C00AF071C029
:102E02000BF002D80EEF17F00500FA6E6451FD6E5A
:102E12006551FE6EFF6AFA5012000C6E0D6A0D507B
:102E2200000AD8B417EF17F0FBEF16F00C50020AA5
:102E3200D8B4F7EF16F0010AD8B4F7EF16F0FBEFAB
:102E420016F01200000E3D01EC6F000EED6F000E49
:102E5200EE6F000EEF6F000EF06F000EF16FB00E0E
:102E6200F26F800EF36F000EF46FCF0EF56F000E4F
:102E7200F66F000EF76F000EF86F000EF96F000E7E
:102E8200FA6FDA0E016E360E026E24EC1BF0D80ECB
:102E9200016E360E026E1FEC1BF0DC0E016E360E5A
:102EA200026E29EC1BF0000E5E6E12003901A3A126
:102EB2005DEF17F05FEF17F061EF17F084EF17F097
:102EC200A2AF66EF17F068EF17F06AEF17F084EF22
:102ED20017F03D0179A570EF17F072EF17F074EF5C
:102EE20017F084EF17F079AF79EF17F07BEF17F057
:102EF2007DEF17F084EF17F076A982EF17F084EFD9
:102F020017F057EF17F012001A6E1A50B3EC15F0C3
:102F12000009D8B48FEF17F091EF17F086EF17F092
:102F220016C001F017C002F018C003F019C004F077
:102F3200F6EC19F0000E066E000E076E000E086E1B
:102F4200000E096E56EC1AF02EEC1BF0CCEC19F0C8
:102F5200E806D8B4AFEF17F0B1EF17F0A7EF17F00C
:102F62001200146E010E156E000183B5BBEF17F04F
:102F7200BDEF17F0D9EF17F08385000E156E7F5164
:102F820015EC1BF01450D8B4C9EF17F0CBEF17F0C3
:102F9200D2EF17F0040E0001816F05EC19F0D7EFA4
:102FA20017F0030E0001816F7AEC1AF02BEC1AF085
:102FB20015501200BCEC1AF00009D8B4E3EF17F078
:102FC200E5EF17F0E9EF17F061EC1BF003EF18F0F3
:102FD200A6EC1AF00009D8B4F1EF17F0F3EF17F0EE
:102FE200F7EF17F05BEC1BF003EF18F0B1EC1AF0FF
:102FF2000009D8B4FFEF17F001EF18F003EF18F053
:103002005EEC1BF0120020EE02F00A50D9260B50A3
:10301200DA226F0078FF01F06F0074FF02F06000A7
:103022002BF0D9FF60002FF0DAFF6F0078FF03F07A
:103032006F0074FF04F0F6EC19F0000E066E000E3D
:10304200076E000E086E000E096E62EC1AF0020E98
:10305200120020EE02F00A50D9260B50DA226F003D
:1030620078FF01F06F0074FF02F060002BF0D9FFCF
:1030720060002FF0DAFF6F0078FF03F06F0074FF3B
:1030820004F0F6EC19F0000E066E000E076E000E4C
:10309200086E000E096E62EC1AF0020E12001A6E31
:1030A2001A50B3EC15F00009D8B45AEF18F05CEFDF
:1030B20018F051EF18F016C001F017C002F018C056
:1030C20003F019C004F0F6EC19F032EC1BF0CCEC72
:1030D20019F0E806D8B470EF18F072EF18F068EF44
:1030E20018F0120020EE22F00150D9260250DA2206
:1030F200010EDBBE87EF18F0010EDB5009E11E0E58
:10310200DE5CD8A087EF18F089EF18F08FEF18F087
:10311200000E026E010E016E93EF18F0000E026EA9
:10312200000E016E120020EE22F00150D92602504C
:10313200DA22010EDBBEA9EF18F0010EDB5006E128
:10314200DE04D8B0A7EF18F0A9EF18F0AFEF18F02F
:10315200000E026E010E016EB3EF18F0000E026E49
:10316200000E016E120020EE1EF00150D926025010
:10317200DA22000EDE6E000EDD6E20EE20F001502F
:10318200D9260250DA22000EDE6E000EDD6E20EE2F
:1031920022F00150D9260250DA22000EDE6E000E15
:1031A200DD6E1200BA0EF66E350EF76E000EF86E78
:1031B20000EEA7F010EE11F009006F00D7FFEEFF4E
:1031C200E550E150F9E100EE60F0240EEE6AE80607
:1031D200FDE15E6A000157EF11F03D0173BFF4EFAC
:1031E20018F0F6EF18F004EF19F0000E796F000EE8
:1031F2007A6F000E766F6C69510E3A015A6F510E5A
:103202005B6F3D01738F120000018351FC0B0209B9
:10321200836F7F058011D8A411EF19F013EF19F015
:1032220015EF19F0C7EC14F0D88000017C3510ECD2
:103232001BF0040E12000AC001F00BC002F0000ED7
:10324200046E010E036EF6EC19F0000E066E000E0F
:10325200076E000E086E000E096E62EC1AF0040E84
:1032620012000AC001F00BC002F0000E046E020E42
:10327200036EF6EC19F0000E066E000E076E000EDD
:10328200086E000E096E62EC1AF0020E12000AC0FD
:1032920001F00BC002F0000E046E010E036EF6EC9C
:1032A20019F0000E066E000E076E000E086E000E7C
:1032B200096E62EC1AF0020E12000AC001F00BC095
:1032C20002F0000E046E020E036EF6EC19F0000E10
:1032D200066E000E076E000E086E000E096E62EC9E
:1032E2001AF0040E12000AC001F00BC002F0000E28
:1032F200046E020E036EF6EC19F0000E066E000E5E
:10330200076E000E086E000E096E62EC1AF0020ED5
:1033120012000AC001F00BC002F0000E046E010E92
:10332200036EF6EC19F0000E066E000E076E000E2C
:10333200086E000E096E62EC1AF0020E12000AC04C
:1033420001F00BC002F0000E046E010E036EF6ECEB
:1033520019F0000E066E000E076E000E086E000ECB
:10336200096E62EC1AF0040E12000AC001F00BC0E2
:1033720002F0000E046E020E036EF6EC19F0000E5F
:10338200066E000E076E000E086E000E096E62ECED
:103392001AF0040E1200010E016E000183B5D4EF83
:1033A20019F0D6EF19F0E0EF19F083977C6942EC3F
:1033B2001BF03AEC1AF00AEC1BF082C001F001504B
:1033C200120049EC1BF046EC1BF00009D8B4ECEFFC
:1033D20019F0EEEF19F0F4EF19F0000E15EC1BF0F6
:1033E200000E10EC1BF0000E1200000183A9FCEF8E
:1033F20019F0FEEF19F007EF1AF001C07DF002C0DC
:103402007EF003C07FF004C080F083991200000EAA
:103412003901C06F000EC16F000EC26F000EC36F84
:10342200000EC46F000EC56F000EC66F000EC76F90
:103432001200040E3D01736F800E746F180E756FCB
:10344200030E7B6F000E796F000E7A6F000E766F9F
:103452006C69120031EF1AF057EC17F07AEC16F0A3
:10346200000183B537EF1AF039EF1AF02DEF1AF099
:103472001200390193939395929F93913D017A9112
:103482007A957A9F7A9D7A937693769576911200C1
:1034920020EE22F00150D9260250DA226F0078FF86
:1034A20001F06F0074FF02F0120006C001F007C0C5
:1034B20002F008C003F009C004F0020EFBEC15F0A4
:1034C200120006C001F007C002F008C003F009C0F4
:1034D20004F0000EFBEC15F01200600E3901D96FFA
:1034E200000EDB6F000EDD6F030EDF6F000EDE6F6E
:1034F200120000018351FC0B0209836F7C517C2571
:1035020010EC1BF0030E12003D0178BB8BEF1AF09A
:103512008EEF1AF0010E8FEF1AF0000E12003D012D
:1035220074BB96EF1AF099EF1AF0010E9AEF1AF0A7
:10353200000E12003D0178B1A1EF1AF0A4EF1AF0CB
:10354200010EA5EF1AF0000E12003D0179B5ACEFA5
:103552001AF0AFEF1AF0010EB0EF1AF0000E1200DF
:103562003D0176B9B7EF1AF0BAEF1AF0010EBBEFD0
:103572001AF0000E12003D0179BFC2EF1AF0C5EF3A
:103582001AF0010EC6EF1AF0000E12003901A3B7AD
:10359200CDEF1AF0D0EF1AF0010ED1EF1AF0000EB3
:1035A200120008EC1AF01AEC1AF073EC14F06EEC3C
:1035B2001AF023EC17F012000000A1A2A3A4A52781
:0935C200A7A8A9AAABACADAEAFFD
:1035CC001AEC1BF000018395020E826F0F0E120095
:1035DC001AEC1BF000018395000E826F0F0E120087
:1035EC004CEC1BF049EC1BF004EC1BF0120000013E
:1035FC007F5115EC1BF005EC19F0120000018395BE
:10360C00000E826F0F0E12003D01739F000E796F3A
:10361C0078851200016E600007F06BFD1200016EE0
:10362C00600007F06CFD12003D01739F7885738F6D
:10363C00120001C05AF002C05BF0120001C05CF035
:10364C0002C05DF0120001C0B8F002C0B9F0120067
:10365C00000EB2EC17F01200010EB2EC17F01200D3
:10366C004CEC1BF0090E12004FEC1BF0040E120078
:10367C004FEC1BF0030E1200000E3D01796F12008F
:10368C003D016C5112003D01739B12003D01748D84
:10369C0012003D01749D12003D016A5112003D0162
:1036AC00738D12003D01739D12003D01799512003E
:1036BC003D01769912003D01799F1200010E120016
:1036CC00020E1200050E1200010E12001200120062
:0236DC001200DA
:04FFFC00D3EF18F037
:020000040020DA
:10000000FF0FFF0FFF0FFF0FFF0FFF0FFF0FFF0F80
:020000040030CA
:0A000000ECFFF7FF9FFFFFFFFFFF7B
:00000001FF
